{
	"looping-practice.sol": {
		"LoopingPractice": {
			"abi": [
				{
					"inputs": [],
					"name": "countEventNumbers",
					"outputs": [
						{
							"internalType": "uint256",
							"name": "",
							"type": "uint256"
						}
					],
					"stateMutability": "view",
					"type": "function"
				},
				{
					"inputs": [
						{
							"internalType": "uint256",
							"name": "input",
							"type": "uint256"
						}
					],
					"name": "isInShortList",
					"outputs": [
						{
							"internalType": "bool",
							"name": "",
							"type": "bool"
						}
					],
					"stateMutability": "view",
					"type": "function"
				}
			],
			"devdoc": {
				"kind": "dev",
				"methods": {},
				"version": 1
			},
			"evm": {
				"assembly": "    /* \"looping-practice.sol\":70:1066  contract LoopingPractice {... */\n  mstore(0x40, 0x80)\n    /* \"looping-practice.sol\":101:367  uint256[] private longList = [... */\n  mload(0x40)\n  dup1\n  0x0280\n  add\n  0x40\n  mstore\n  dup1\n    /* \"looping-practice.sol\":140:141  1 */\n  0x01\n    /* \"looping-practice.sol\":101:367  uint256[] private longList = [... */\n  0xff\n  and\n  dup2\n  mstore\n  0x20\n  add\n    /* \"looping-practice.sol\":151:152  2 */\n  0x02\n    /* \"looping-practice.sol\":101:367  uint256[] private longList = [... */\n  0xff\n  and\n  dup2\n  mstore\n  0x20\n  add\n    /* \"looping-practice.sol\":162:163  3 */\n  0x03\n    /* \"looping-practice.sol\":101:367  uint256[] private longList = [... */\n  0xff\n  and\n  dup2\n  mstore\n  0x20\n  add\n    /* \"looping-practice.sol\":173:174  4 */\n  0x04\n    /* \"looping-practice.sol\":101:367  uint256[] private longList = [... */\n  0xff\n  and\n  dup2\n  mstore\n  0x20\n  add\n    /* \"looping-practice.sol\":184:185  5 */\n  0x05\n    /* \"looping-practice.sol\":101:367  uint256[] private longList = [... */\n  0xff\n  and\n  dup2\n  mstore\n  0x20\n  add\n    /* \"looping-practice.sol\":195:196  6 */\n  0x06\n    /* \"looping-practice.sol\":101:367  uint256[] private longList = [... */\n  0xff\n  and\n  dup2\n  mstore\n  0x20\n  add\n    /* \"looping-practice.sol\":206:207  7 */\n  0x07\n    /* \"looping-practice.sol\":101:367  uint256[] private longList = [... */\n  0xff\n  and\n  dup2\n  mstore\n  0x20\n  add\n    /* \"looping-practice.sol\":217:218  8 */\n  0x08\n    /* \"looping-practice.sol\":101:367  uint256[] private longList = [... */\n  0xff\n  and\n  dup2\n  mstore\n  0x20\n  add\n    /* \"looping-practice.sol\":228:229  9 */\n  0x09\n    /* \"looping-practice.sol\":101:367  uint256[] private longList = [... */\n  0xff\n  and\n  dup2\n  mstore\n  0x20\n  add\n    /* \"looping-practice.sol\":239:241  10 */\n  0x0a\n    /* \"looping-practice.sol\":101:367  uint256[] private longList = [... */\n  0xff\n  and\n  dup2\n  mstore\n  0x20\n  add\n    /* \"looping-practice.sol\":251:253  11 */\n  0x0b\n    /* \"looping-practice.sol\":101:367  uint256[] private longList = [... */\n  0xff\n  and\n  dup2\n  mstore\n  0x20\n  add\n    /* \"looping-practice.sol\":263:265  12 */\n  0x0c\n    /* \"looping-practice.sol\":101:367  uint256[] private longList = [... */\n  0xff\n  and\n  dup2\n  mstore\n  0x20\n  add\n    /* \"looping-practice.sol\":275:277  13 */\n  0x0d\n    /* \"looping-practice.sol\":101:367  uint256[] private longList = [... */\n  0xff\n  and\n  dup2\n  mstore\n  0x20\n  add\n    /* \"looping-practice.sol\":287:289  14 */\n  0x0e\n    /* \"looping-practice.sol\":101:367  uint256[] private longList = [... */\n  0xff\n  and\n  dup2\n  mstore\n  0x20\n  add\n    /* \"looping-practice.sol\":299:301  15 */\n  0x0f\n    /* \"looping-practice.sol\":101:367  uint256[] private longList = [... */\n  0xff\n  and\n  dup2\n  mstore\n  0x20\n  add\n    /* \"looping-practice.sol\":311:313  16 */\n  0x10\n    /* \"looping-practice.sol\":101:367  uint256[] private longList = [... */\n  0xff\n  and\n  dup2\n  mstore\n  0x20\n  add\n    /* \"looping-practice.sol\":323:325  17 */\n  0x11\n    /* \"looping-practice.sol\":101:367  uint256[] private longList = [... */\n  0xff\n  and\n  dup2\n  mstore\n  0x20\n  add\n    /* \"looping-practice.sol\":335:337  18 */\n  0x12\n    /* \"looping-practice.sol\":101:367  uint256[] private longList = [... */\n  0xff\n  and\n  dup2\n  mstore\n  0x20\n  add\n    /* \"looping-practice.sol\":347:349  19 */\n  0x13\n    /* \"looping-practice.sol\":101:367  uint256[] private longList = [... */\n  0xff\n  and\n  dup2\n  mstore\n  0x20\n  add\n    /* \"looping-practice.sol\":359:361  20 */\n  0x14\n    /* \"looping-practice.sol\":101:367  uint256[] private longList = [... */\n  0xff\n  and\n  dup2\n  mstore\n  pop\n  0x00\n  swap1\n  0x14\n  tag_1\n  swap3\n  swap2\n  swap1\n  tag_2\n  jump\t// in\ntag_1:\n  pop\n    /* \"looping-practice.sol\":373:417  uint256[] private shortList = [1, 4, 34, 56] */\n  mload(0x40)\n  dup1\n  0x80\n  add\n  0x40\n  mstore\n  dup1\n    /* \"looping-practice.sol\":404:405  1 */\n  0x01\n    /* \"looping-practice.sol\":373:417  uint256[] private shortList = [1, 4, 34, 56] */\n  0xff\n  and\n  dup2\n  mstore\n  0x20\n  add\n    /* \"looping-practice.sol\":407:408  4 */\n  0x04\n    /* \"looping-practice.sol\":373:417  uint256[] private shortList = [1, 4, 34, 56] */\n  0xff\n  and\n  dup2\n  mstore\n  0x20\n  add\n    /* \"looping-practice.sol\":410:412  34 */\n  0x22\n    /* \"looping-practice.sol\":373:417  uint256[] private shortList = [1, 4, 34, 56] */\n  0xff\n  and\n  dup2\n  mstore\n  0x20\n  add\n    /* \"looping-practice.sol\":414:416  56 */\n  0x38\n    /* \"looping-practice.sol\":373:417  uint256[] private shortList = [1, 4, 34, 56] */\n  0xff\n  and\n  dup2\n  mstore\n  pop\n  0x01\n  swap1\n  0x04\n  tag_3\n  swap3\n  swap2\n  swap1\n  tag_4\n  jump\t// in\ntag_3:\n  pop\n    /* \"looping-practice.sol\":70:1066  contract LoopingPractice {... */\n  callvalue\n  dup1\n  iszero\n  tag_5\n  jumpi\n  revert(0x00, 0x00)\ntag_5:\n  pop\n  jump(tag_6)\ntag_2:\n  dup3\n  dup1\n  sload\n  dup3\n  dup3\n  sstore\n  swap1\n  0x00\n  mstore\n  keccak256(0x00, 0x20)\n  swap1\n  dup2\n  add\n  swap3\n  dup3\n  iszero\n  tag_7\n  jumpi\n  swap2\n  0x20\n  mul\n  dup3\n  add\ntag_8:\n  dup3\n  dup2\n  gt\n  iszero\n  tag_9\n  jumpi\n  dup3\n  mload\n  dup3\n  swap1\n  0xff\n  and\n  swap1\n  sstore\n  swap2\n  0x20\n  add\n  swap2\n  swap1\n  0x01\n  add\n  swap1\n  jump(tag_8)\ntag_9:\ntag_7:\n  pop\n  swap1\n  pop\n  tag_10\n  swap2\n  swap1\n  tag_11\n  jump\t// in\ntag_10:\n  pop\n  swap1\n  jump\t// out\ntag_4:\n  dup3\n  dup1\n  sload\n  dup3\n  dup3\n  sstore\n  swap1\n  0x00\n  mstore\n  keccak256(0x00, 0x20)\n  swap1\n  dup2\n  add\n  swap3\n  dup3\n  iszero\n  tag_12\n  jumpi\n  swap2\n  0x20\n  mul\n  dup3\n  add\ntag_13:\n  dup3\n  dup2\n  gt\n  iszero\n  tag_14\n  jumpi\n  dup3\n  mload\n  dup3\n  swap1\n  0xff\n  and\n  swap1\n  sstore\n  swap2\n  0x20\n  add\n  swap2\n  swap1\n  0x01\n  add\n  swap1\n  jump(tag_13)\ntag_14:\ntag_12:\n  pop\n  swap1\n  pop\n  tag_15\n  swap2\n  swap1\n  tag_11\n  jump\t// in\ntag_15:\n  pop\n  swap1\n  jump\t// out\ntag_11:\ntag_16:\n  dup1\n  dup3\n  gt\n  iszero\n  tag_17\n  jumpi\n  0x00\n  dup2\n  0x00\n  swap1\n  sstore\n  pop\n  0x01\n  add\n  jump(tag_16)\ntag_17:\n  pop\n  swap1\n  jump\t// out\ntag_6:\n  dataSize(sub_0)\n  dup1\n  dataOffset(sub_0)\n  0x00\n  codecopy\n  0x00\n  return\nstop\n\nsub_0: assembly {\n        /* \"looping-practice.sol\":70:1066  contract LoopingPractice {... */\n      mstore(0x40, 0x80)\n      callvalue\n      dup1\n      iszero\n      tag_1\n      jumpi\n      revert(0x00, 0x00)\n    tag_1:\n      pop\n      jumpi(tag_2, lt(calldatasize, 0x04))\n      shr(0xe0, calldataload(0x00))\n      dup1\n      0x02ed22d7\n      eq\n      tag_3\n      jumpi\n      dup1\n      0xf3710a44\n      eq\n      tag_4\n      jumpi\n    tag_2:\n      revert(0x00, 0x00)\n        /* \"looping-practice.sol\":658:1064  function isInShortList(uint256 input) public view returns (bool) {... */\n    tag_3:\n      tag_5\n      0x04\n      dup1\n      calldatasize\n      sub\n      dup2\n      add\n      swap1\n      tag_6\n      swap2\n      swap1\n      tag_7\n      jump\t// in\n    tag_6:\n      tag_8\n      jump\t// in\n    tag_5:\n      mload(0x40)\n      tag_9\n      swap2\n      swap1\n      tag_10\n      jump\t// in\n    tag_9:\n      mload(0x40)\n      dup1\n      swap2\n      sub\n      swap1\n      return\n        /* \"looping-practice.sol\":424:652  function countEventNumbers() public view returns (uint256) {... */\n    tag_4:\n      tag_11\n      tag_12\n      jump\t// in\n    tag_11:\n      mload(0x40)\n      tag_13\n      swap2\n      swap1\n      tag_14\n      jump\t// in\n    tag_13:\n      mload(0x40)\n      dup1\n      swap2\n      sub\n      swap1\n      return\n        /* \"looping-practice.sol\":658:1064  function isInShortList(uint256 input) public view returns (bool) {... */\n    tag_8:\n        /* \"looping-practice.sol\":717:721  bool */\n      0x00\n        /* \"looping-practice.sol\":738:747  uint256 i */\n      0x00\n        /* \"looping-practice.sol\":750:751  0 */\n      0x00\n        /* \"looping-practice.sol\":738:751  uint256 i = 0 */\n      swap1\n      pop\n        /* \"looping-practice.sol\":733:1036  for (uint256 i = 0; i < shortList.length; i++) {... */\n    tag_16:\n        /* \"looping-practice.sol\":757:766  shortList */\n      0x01\n        /* \"looping-practice.sol\":757:773  shortList.length */\n      dup1\n      sload\n      swap1\n      pop\n        /* \"looping-practice.sol\":753:754  i */\n      dup2\n        /* \"looping-practice.sol\":753:773  i < shortList.length */\n      lt\n        /* \"looping-practice.sol\":733:1036  for (uint256 i = 0; i < shortList.length; i++) {... */\n      iszero\n      tag_17\n      jumpi\n        /* \"looping-practice.sol\":923:928  input */\n      dup3\n        /* \"looping-practice.sol\":906:915  shortList */\n      0x01\n        /* \"looping-practice.sol\":916:917  i */\n      dup3\n        /* \"looping-practice.sol\":906:918  shortList[i] */\n      dup2\n      sload\n      dup2\n      lt\n      tag_19\n      jumpi\n      tag_20\n      tag_21\n      jump\t// in\n    tag_20:\n    tag_19:\n      swap1\n      0x00\n      mstore\n      keccak256(0x00, 0x20)\n      add\n      sload\n        /* \"looping-practice.sol\":905:928  (shortList[i]) == input */\n      sub\n        /* \"looping-practice.sol\":901:1026  if ((shortList[i]) == input) {... */\n      tag_23\n      jumpi\n        /* \"looping-practice.sol\":993:997  true */\n      0x01\n        /* \"looping-practice.sol\":986:997  return true */\n      swap2\n      pop\n      pop\n      jump(tag_15)\n        /* \"looping-practice.sol\":901:1026  if ((shortList[i]) == input) {... */\n    tag_23:\n        /* \"looping-practice.sol\":775:778  i++ */\n      dup1\n      dup1\n      0x01\n      add\n      swap2\n      pop\n      pop\n        /* \"looping-practice.sol\":733:1036  for (uint256 i = 0; i < shortList.length; i++) {... */\n      jump(tag_16)\n    tag_17:\n      pop\n        /* \"looping-practice.sol\":1052:1057  false */\n      0x00\n        /* \"looping-practice.sol\":1045:1057  return false */\n      swap1\n      pop\n        /* \"looping-practice.sol\":658:1064  function isInShortList(uint256 input) public view returns (bool) {... */\n    tag_15:\n      swap2\n      swap1\n      pop\n      jump\t// out\n        /* \"looping-practice.sol\":424:652  function countEventNumbers() public view returns (uint256) {... */\n    tag_12:\n        /* \"looping-practice.sol\":474:481  uint256 */\n      0x00\n        /* \"looping-practice.sol\":493:506  uint256 count */\n      0x00\n        /* \"looping-practice.sol\":509:510  0 */\n      0x00\n        /* \"looping-practice.sol\":493:510  uint256 count = 0 */\n      swap1\n      pop\n        /* \"looping-practice.sol\":525:534  uint256 n */\n      0x00\n        /* \"looping-practice.sol\":537:538  0 */\n      0x00\n        /* \"looping-practice.sol\":525:538  uint256 n = 0 */\n      swap1\n      pop\n        /* \"looping-practice.sol\":520:624  for (uint256 n = 0; n < longList.length; n++) {... */\n    tag_25:\n        /* \"looping-practice.sol\":544:552  longList */\n      0x00\n        /* \"looping-practice.sol\":544:559  longList.length */\n      dup1\n      sload\n      swap1\n      pop\n        /* \"looping-practice.sol\":540:541  n */\n      dup2\n        /* \"looping-practice.sol\":540:559  n < longList.length */\n      lt\n        /* \"looping-practice.sol\":520:624  for (uint256 n = 0; n < longList.length; n++) {... */\n      iszero\n      tag_26\n      jumpi\n        /* \"looping-practice.sol\":603:604  0 */\n      0x00\n        /* \"looping-practice.sol\":598:599  2 */\n      0x02\n        /* \"looping-practice.sol\":584:592  longList */\n      0x00\n        /* \"looping-practice.sol\":593:594  n */\n      dup4\n        /* \"looping-practice.sol\":584:595  longList[n] */\n      dup2\n      sload\n      dup2\n      lt\n      tag_28\n      jumpi\n      tag_29\n      tag_21\n      jump\t// in\n    tag_29:\n    tag_28:\n      swap1\n      0x00\n      mstore\n      keccak256(0x00, 0x20)\n      add\n      sload\n        /* \"looping-practice.sol\":584:599  longList[n] % 2 */\n      tag_31\n      swap2\n      swap1\n      tag_32\n      jump\t// in\n    tag_31:\n        /* \"looping-practice.sol\":584:604  longList[n] % 2 == 0 */\n      sub\n        /* \"looping-practice.sol\":580:613  if (longList[n] % 2 == 0) count++ */\n      tag_33\n      jumpi\n        /* \"looping-practice.sol\":606:613  count++ */\n      dup2\n      dup1\n      tag_34\n      swap1\n      tag_35\n      jump\t// in\n    tag_34:\n      swap3\n      pop\n      pop\n        /* \"looping-practice.sol\":580:613  if (longList[n] % 2 == 0) count++ */\n    tag_33:\n        /* \"looping-practice.sol\":561:564  n++ */\n      dup1\n      dup1\n      0x01\n      add\n      swap2\n      pop\n      pop\n        /* \"looping-practice.sol\":520:624  for (uint256 n = 0; n < longList.length; n++) {... */\n      jump(tag_25)\n    tag_26:\n      pop\n        /* \"looping-practice.sol\":640:645  count */\n      dup1\n        /* \"looping-practice.sol\":633:645  return count */\n      swap2\n      pop\n      pop\n        /* \"looping-practice.sol\":424:652  function countEventNumbers() public view returns (uint256) {... */\n      swap1\n      jump\t// out\n        /* \"#utility.yul\":88:205   */\n    tag_37:\n        /* \"#utility.yul\":197:198   */\n      0x00\n        /* \"#utility.yul\":194:195   */\n      0x00\n        /* \"#utility.yul\":187:199   */\n      revert\n        /* \"#utility.yul\":334:411   */\n    tag_39:\n        /* \"#utility.yul\":371:378   */\n      0x00\n        /* \"#utility.yul\":400:405   */\n      dup2\n        /* \"#utility.yul\":389:405   */\n      swap1\n      pop\n        /* \"#utility.yul\":334:411   */\n      swap2\n      swap1\n      pop\n      jump\t// out\n        /* \"#utility.yul\":417:539   */\n    tag_40:\n        /* \"#utility.yul\":490:514   */\n      tag_53\n        /* \"#utility.yul\":508:513   */\n      dup2\n        /* \"#utility.yul\":490:514   */\n      tag_39\n      jump\t// in\n    tag_53:\n        /* \"#utility.yul\":483:488   */\n      dup2\n        /* \"#utility.yul\":480:515   */\n      eq\n        /* \"#utility.yul\":470:533   */\n      tag_54\n      jumpi\n        /* \"#utility.yul\":529:530   */\n      0x00\n        /* \"#utility.yul\":526:527   */\n      0x00\n        /* \"#utility.yul\":519:531   */\n      revert\n        /* \"#utility.yul\":470:533   */\n    tag_54:\n        /* \"#utility.yul\":417:539   */\n      pop\n      jump\t// out\n        /* \"#utility.yul\":545:684   */\n    tag_41:\n        /* \"#utility.yul\":591:596   */\n      0x00\n        /* \"#utility.yul\":629:635   */\n      dup2\n        /* \"#utility.yul\":616:636   */\n      calldataload\n        /* \"#utility.yul\":607:636   */\n      swap1\n      pop\n        /* \"#utility.yul\":645:678   */\n      tag_56\n        /* \"#utility.yul\":672:677   */\n      dup2\n        /* \"#utility.yul\":645:678   */\n      tag_40\n      jump\t// in\n    tag_56:\n        /* \"#utility.yul\":545:684   */\n      swap3\n      swap2\n      pop\n      pop\n      jump\t// out\n        /* \"#utility.yul\":690:1019   */\n    tag_7:\n        /* \"#utility.yul\":749:755   */\n      0x00\n        /* \"#utility.yul\":798:800   */\n      0x20\n        /* \"#utility.yul\":786:795   */\n      dup3\n        /* \"#utility.yul\":777:784   */\n      dup5\n        /* \"#utility.yul\":773:796   */\n      sub\n        /* \"#utility.yul\":769:801   */\n      slt\n        /* \"#utility.yul\":766:885   */\n      iszero\n      tag_58\n      jumpi\n        /* \"#utility.yul\":804:883   */\n      tag_59\n      tag_37\n      jump\t// in\n    tag_59:\n        /* \"#utility.yul\":766:885   */\n    tag_58:\n        /* \"#utility.yul\":924:925   */\n      0x00\n        /* \"#utility.yul\":949:1002   */\n      tag_60\n        /* \"#utility.yul\":994:1001   */\n      dup5\n        /* \"#utility.yul\":985:991   */\n      dup3\n        /* \"#utility.yul\":974:983   */\n      dup6\n        /* \"#utility.yul\":970:992   */\n      add\n        /* \"#utility.yul\":949:1002   */\n      tag_41\n      jump\t// in\n    tag_60:\n        /* \"#utility.yul\":939:1002   */\n      swap2\n      pop\n        /* \"#utility.yul\":895:1012   */\n      pop\n        /* \"#utility.yul\":690:1019   */\n      swap3\n      swap2\n      pop\n      pop\n      jump\t// out\n        /* \"#utility.yul\":1025:1115   */\n    tag_42:\n        /* \"#utility.yul\":1059:1066   */\n      0x00\n        /* \"#utility.yul\":1102:1107   */\n      dup2\n        /* \"#utility.yul\":1095:1108   */\n      iszero\n        /* \"#utility.yul\":1088:1109   */\n      iszero\n        /* \"#utility.yul\":1077:1109   */\n      swap1\n      pop\n        /* \"#utility.yul\":1025:1115   */\n      swap2\n      swap1\n      pop\n      jump\t// out\n        /* \"#utility.yul\":1121:1230   */\n    tag_43:\n        /* \"#utility.yul\":1202:1223   */\n      tag_63\n        /* \"#utility.yul\":1217:1222   */\n      dup2\n        /* \"#utility.yul\":1202:1223   */\n      tag_42\n      jump\t// in\n    tag_63:\n        /* \"#utility.yul\":1197:1200   */\n      dup3\n        /* \"#utility.yul\":1190:1224   */\n      mstore\n        /* \"#utility.yul\":1121:1230   */\n      pop\n      pop\n      jump\t// out\n        /* \"#utility.yul\":1236:1446   */\n    tag_10:\n        /* \"#utility.yul\":1323:1327   */\n      0x00\n        /* \"#utility.yul\":1361:1363   */\n      0x20\n        /* \"#utility.yul\":1350:1359   */\n      dup3\n        /* \"#utility.yul\":1346:1364   */\n      add\n        /* \"#utility.yul\":1338:1364   */\n      swap1\n      pop\n        /* \"#utility.yul\":1374:1439   */\n      tag_65\n        /* \"#utility.yul\":1436:1437   */\n      0x00\n        /* \"#utility.yul\":1425:1434   */\n      dup4\n        /* \"#utility.yul\":1421:1438   */\n      add\n        /* \"#utility.yul\":1412:1418   */\n      dup5\n        /* \"#utility.yul\":1374:1439   */\n      tag_43\n      jump\t// in\n    tag_65:\n        /* \"#utility.yul\":1236:1446   */\n      swap3\n      swap2\n      pop\n      pop\n      jump\t// out\n        /* \"#utility.yul\":1452:1570   */\n    tag_44:\n        /* \"#utility.yul\":1539:1563   */\n      tag_67\n        /* \"#utility.yul\":1557:1562   */\n      dup2\n        /* \"#utility.yul\":1539:1563   */\n      tag_39\n      jump\t// in\n    tag_67:\n        /* \"#utility.yul\":1534:1537   */\n      dup3\n        /* \"#utility.yul\":1527:1564   */\n      mstore\n        /* \"#utility.yul\":1452:1570   */\n      pop\n      pop\n      jump\t// out\n        /* \"#utility.yul\":1576:1798   */\n    tag_14:\n        /* \"#utility.yul\":1669:1673   */\n      0x00\n        /* \"#utility.yul\":1707:1709   */\n      0x20\n        /* \"#utility.yul\":1696:1705   */\n      dup3\n        /* \"#utility.yul\":1692:1710   */\n      add\n        /* \"#utility.yul\":1684:1710   */\n      swap1\n      pop\n        /* \"#utility.yul\":1720:1791   */\n      tag_69\n        /* \"#utility.yul\":1788:1789   */\n      0x00\n        /* \"#utility.yul\":1777:1786   */\n      dup4\n        /* \"#utility.yul\":1773:1790   */\n      add\n        /* \"#utility.yul\":1764:1770   */\n      dup5\n        /* \"#utility.yul\":1720:1791   */\n      tag_44\n      jump\t// in\n    tag_69:\n        /* \"#utility.yul\":1576:1798   */\n      swap3\n      swap2\n      pop\n      pop\n      jump\t// out\n        /* \"#utility.yul\":1804:1984   */\n    tag_21:\n        /* \"#utility.yul\":1852:1929   */\n      0x4e487b7100000000000000000000000000000000000000000000000000000000\n        /* \"#utility.yul\":1849:1850   */\n      0x00\n        /* \"#utility.yul\":1842:1930   */\n      mstore\n        /* \"#utility.yul\":1949:1953   */\n      0x32\n        /* \"#utility.yul\":1946:1947   */\n      0x04\n        /* \"#utility.yul\":1939:1954   */\n      mstore\n        /* \"#utility.yul\":1973:1977   */\n      0x24\n        /* \"#utility.yul\":1970:1971   */\n      0x00\n        /* \"#utility.yul\":1963:1978   */\n      revert\n        /* \"#utility.yul\":1990:2170   */\n    tag_45:\n        /* \"#utility.yul\":2038:2115   */\n      0x4e487b7100000000000000000000000000000000000000000000000000000000\n        /* \"#utility.yul\":2035:2036   */\n      0x00\n        /* \"#utility.yul\":2028:2116   */\n      mstore\n        /* \"#utility.yul\":2135:2139   */\n      0x12\n        /* \"#utility.yul\":2132:2133   */\n      0x04\n        /* \"#utility.yul\":2125:2140   */\n      mstore\n        /* \"#utility.yul\":2159:2163   */\n      0x24\n        /* \"#utility.yul\":2156:2157   */\n      0x00\n        /* \"#utility.yul\":2149:2164   */\n      revert\n        /* \"#utility.yul\":2176:2352   */\n    tag_32:\n        /* \"#utility.yul\":2208:2209   */\n      0x00\n        /* \"#utility.yul\":2225:2245   */\n      tag_73\n        /* \"#utility.yul\":2243:2244   */\n      dup3\n        /* \"#utility.yul\":2225:2245   */\n      tag_39\n      jump\t// in\n    tag_73:\n        /* \"#utility.yul\":2220:2245   */\n      swap2\n      pop\n        /* \"#utility.yul\":2259:2279   */\n      tag_74\n        /* \"#utility.yul\":2277:2278   */\n      dup4\n        /* \"#utility.yul\":2259:2279   */\n      tag_39\n      jump\t// in\n    tag_74:\n        /* \"#utility.yul\":2254:2279   */\n      swap3\n      pop\n        /* \"#utility.yul\":2298:2299   */\n      dup3\n        /* \"#utility.yul\":2288:2323   */\n      tag_75\n      jumpi\n        /* \"#utility.yul\":2303:2321   */\n      tag_76\n      tag_45\n      jump\t// in\n    tag_76:\n        /* \"#utility.yul\":2288:2323   */\n    tag_75:\n        /* \"#utility.yul\":2344:2345   */\n      dup3\n        /* \"#utility.yul\":2341:2342   */\n      dup3\n        /* \"#utility.yul\":2337:2346   */\n      mod\n        /* \"#utility.yul\":2332:2346   */\n      swap1\n      pop\n        /* \"#utility.yul\":2176:2352   */\n      swap3\n      swap2\n      pop\n      pop\n      jump\t// out\n        /* \"#utility.yul\":2358:2538   */\n    tag_46:\n        /* \"#utility.yul\":2406:2483   */\n      0x4e487b7100000000000000000000000000000000000000000000000000000000\n        /* \"#utility.yul\":2403:2404   */\n      0x00\n        /* \"#utility.yul\":2396:2484   */\n      mstore\n        /* \"#utility.yul\":2503:2507   */\n      0x11\n        /* \"#utility.yul\":2500:2501   */\n      0x04\n        /* \"#utility.yul\":2493:2508   */\n      mstore\n        /* \"#utility.yul\":2527:2531   */\n      0x24\n        /* \"#utility.yul\":2524:2525   */\n      0x00\n        /* \"#utility.yul\":2517:2532   */\n      revert\n        /* \"#utility.yul\":2544:2777   */\n    tag_35:\n        /* \"#utility.yul\":2583:2586   */\n      0x00\n        /* \"#utility.yul\":2606:2630   */\n      tag_79\n        /* \"#utility.yul\":2624:2629   */\n      dup3\n        /* \"#utility.yul\":2606:2630   */\n      tag_39\n      jump\t// in\n    tag_79:\n        /* \"#utility.yul\":2597:2630   */\n      swap2\n      pop\n        /* \"#utility.yul\":2652:2718   */\n      0xffffffffffffffffffffffffffffffffffffffffffffffffffffffffffffffff\n        /* \"#utility.yul\":2645:2650   */\n      dup3\n        /* \"#utility.yul\":2642:2719   */\n      sub\n        /* \"#utility.yul\":2639:2742   */\n      tag_80\n      jumpi\n        /* \"#utility.yul\":2722:2740   */\n      tag_81\n      tag_46\n      jump\t// in\n    tag_81:\n        /* \"#utility.yul\":2639:2742   */\n    tag_80:\n        /* \"#utility.yul\":2769:2770   */\n      0x01\n        /* \"#utility.yul\":2762:2767   */\n      dup3\n        /* \"#utility.yul\":2758:2771   */\n      add\n        /* \"#utility.yul\":2751:2771   */\n      swap1\n      pop\n        /* \"#utility.yul\":2544:2777   */\n      swap2\n      swap1\n      pop\n      jump\t// out\n\n    auxdata: 0xa26469706673582212201fba64c535fd52719a8692e93944f2a4826950c94bd12f9c2ff3d5e7e14ea5bf64736f6c634300081e0033\n}\n",
				"bytecode": {
					"linkReferences": {},
					"object": "6080604052604051806102800160405280600160ff168152602001600260ff168152602001600360ff168152602001600460ff168152602001600560ff168152602001600660ff168152602001600760ff168152602001600860ff168152602001600960ff168152602001600a60ff168152602001600b60ff168152602001600c60ff168152602001600d60ff168152602001600e60ff168152602001600f60ff168152602001601060ff168152602001601160ff168152602001601260ff168152602001601360ff168152602001601460ff168152505f9060146100e5929190610139565b506040518060800160405280600160ff168152602001600460ff168152602001602260ff168152602001603860ff168152506001906004610127929190610189565b50348015610133575f5ffd5b506101f4565b828054828255905f5260205f20908101928215610178579160200282015b82811115610177578251829060ff16905591602001919060010190610157565b5b50905061018591906101d9565b5090565b828054828255905f5260205f209081019282156101c8579160200282015b828111156101c7578251829060ff169055916020019190600101906101a7565b5b5090506101d591906101d9565b5090565b5b808211156101f0575f815f9055506001016101da565b5090565b610336806102015f395ff3fe608060405234801561000f575f5ffd5b5060043610610034575f3560e01c806302ed22d714610038578063f3710a4414610068575b5f5ffd5b610052600480360381019061004d919061017c565b610086565b60405161005f91906101c1565b60405180910390f35b6100706100dd565b60405161007d91906101e9565b60405180910390f35b5f5f5f90505b6001805490508110156100d35782600182815481106100ae576100ad610202565b5b905f5260205f200154036100c65760019150506100d8565b808060010191505061008c565b505f90505b919050565b5f5f5f90505f5f90505b5f8054905081101561013d575f60025f838154811061010957610108610202565b5b905f5260205f20015461011c919061025c565b0361013057818061012c906102b9565b9250505b80806001019150506100e7565b508091505090565b5f5ffd5b5f819050919050565b61015b81610149565b8114610165575f5ffd5b50565b5f8135905061017681610152565b92915050565b5f6020828403121561019157610190610145565b5b5f61019e84828501610168565b91505092915050565b5f8115159050919050565b6101bb816101a7565b82525050565b5f6020820190506101d45f8301846101b2565b92915050565b6101e381610149565b82525050565b5f6020820190506101fc5f8301846101da565b92915050565b7f4e487b71000000000000000000000000000000000000000000000000000000005f52603260045260245ffd5b7f4e487b71000000000000000000000000000000000000000000000000000000005f52601260045260245ffd5b5f61026682610149565b915061027183610149565b9250826102815761028061022f565b5b828206905092915050565b7f4e487b71000000000000000000000000000000000000000000000000000000005f52601160045260245ffd5b5f6102c382610149565b91507fffffffffffffffffffffffffffffffffffffffffffffffffffffffffffffffff82036102f5576102f461028c565b5b60018201905091905056fea26469706673582212201fba64c535fd52719a8692e93944f2a4826950c94bd12f9c2ff3d5e7e14ea5bf64736f6c634300081e0033",
					"opcodes": "PUSH1 0x80 PUSH1 0x40 MSTORE PUSH1 0x40 MLOAD DUP1 PUSH2 0x280 ADD PUSH1 0x40 MSTORE DUP1 PUSH1 0x1 PUSH1 0xFF AND DUP2 MSTORE PUSH1 0x20 ADD PUSH1 0x2 PUSH1 0xFF AND DUP2 MSTORE PUSH1 0x20 ADD PUSH1 0x3 PUSH1 0xFF AND DUP2 MSTORE PUSH1 0x20 ADD PUSH1 0x4 PUSH1 0xFF AND DUP2 MSTORE PUSH1 0x20 ADD PUSH1 0x5 PUSH1 0xFF AND DUP2 MSTORE PUSH1 0x20 ADD PUSH1 0x6 PUSH1 0xFF AND DUP2 MSTORE PUSH1 0x20 ADD PUSH1 0x7 PUSH1 0xFF AND DUP2 MSTORE PUSH1 0x20 ADD PUSH1 0x8 PUSH1 0xFF AND DUP2 MSTORE PUSH1 0x20 ADD PUSH1 0x9 PUSH1 0xFF AND DUP2 MSTORE PUSH1 0x20 ADD PUSH1 0xA PUSH1 0xFF AND DUP2 MSTORE PUSH1 0x20 ADD PUSH1 0xB PUSH1 0xFF AND DUP2 MSTORE PUSH1 0x20 ADD PUSH1 0xC PUSH1 0xFF AND DUP2 MSTORE PUSH1 0x20 ADD PUSH1 0xD PUSH1 0xFF AND DUP2 MSTORE PUSH1 0x20 ADD PUSH1 0xE PUSH1 0xFF AND DUP2 MSTORE PUSH1 0x20 ADD PUSH1 0xF PUSH1 0xFF AND DUP2 MSTORE PUSH1 0x20 ADD PUSH1 0x10 PUSH1 0xFF AND DUP2 MSTORE PUSH1 0x20 ADD PUSH1 0x11 PUSH1 0xFF AND DUP2 MSTORE PUSH1 0x20 ADD PUSH1 0x12 PUSH1 0xFF AND DUP2 MSTORE PUSH1 0x20 ADD PUSH1 0x13 PUSH1 0xFF AND DUP2 MSTORE PUSH1 0x20 ADD PUSH1 0x14 PUSH1 0xFF AND DUP2 MSTORE POP PUSH0 SWAP1 PUSH1 0x14 PUSH2 0xE5 SWAP3 SWAP2 SWAP1 PUSH2 0x139 JUMP JUMPDEST POP PUSH1 0x40 MLOAD DUP1 PUSH1 0x80 ADD PUSH1 0x40 MSTORE DUP1 PUSH1 0x1 PUSH1 0xFF AND DUP2 MSTORE PUSH1 0x20 ADD PUSH1 0x4 PUSH1 0xFF AND DUP2 MSTORE PUSH1 0x20 ADD PUSH1 0x22 PUSH1 0xFF AND DUP2 MSTORE PUSH1 0x20 ADD PUSH1 0x38 PUSH1 0xFF AND DUP2 MSTORE POP PUSH1 0x1 SWAP1 PUSH1 0x4 PUSH2 0x127 SWAP3 SWAP2 SWAP1 PUSH2 0x189 JUMP JUMPDEST POP CALLVALUE DUP1 ISZERO PUSH2 0x133 JUMPI PUSH0 PUSH0 REVERT JUMPDEST POP PUSH2 0x1F4 JUMP JUMPDEST DUP3 DUP1 SLOAD DUP3 DUP3 SSTORE SWAP1 PUSH0 MSTORE PUSH1 0x20 PUSH0 KECCAK256 SWAP1 DUP2 ADD SWAP3 DUP3 ISZERO PUSH2 0x178 JUMPI SWAP2 PUSH1 0x20 MUL DUP3 ADD JUMPDEST DUP3 DUP2 GT ISZERO PUSH2 0x177 JUMPI DUP3 MLOAD DUP3 SWAP1 PUSH1 0xFF AND SWAP1 SSTORE SWAP2 PUSH1 0x20 ADD SWAP2 SWAP1 PUSH1 0x1 ADD SWAP1 PUSH2 0x157 JUMP JUMPDEST JUMPDEST POP SWAP1 POP PUSH2 0x185 SWAP2 SWAP1 PUSH2 0x1D9 JUMP JUMPDEST POP SWAP1 JUMP JUMPDEST DUP3 DUP1 SLOAD DUP3 DUP3 SSTORE SWAP1 PUSH0 MSTORE PUSH1 0x20 PUSH0 KECCAK256 SWAP1 DUP2 ADD SWAP3 DUP3 ISZERO PUSH2 0x1C8 JUMPI SWAP2 PUSH1 0x20 MUL DUP3 ADD JUMPDEST DUP3 DUP2 GT ISZERO PUSH2 0x1C7 JUMPI DUP3 MLOAD DUP3 SWAP1 PUSH1 0xFF AND SWAP1 SSTORE SWAP2 PUSH1 0x20 ADD SWAP2 SWAP1 PUSH1 0x1 ADD SWAP1 PUSH2 0x1A7 JUMP JUMPDEST JUMPDEST POP SWAP1 POP PUSH2 0x1D5 SWAP2 SWAP1 PUSH2 0x1D9 JUMP JUMPDEST POP SWAP1 JUMP JUMPDEST JUMPDEST DUP1 DUP3 GT ISZERO PUSH2 0x1F0 JUMPI PUSH0 DUP2 PUSH0 SWAP1 SSTORE POP PUSH1 0x1 ADD PUSH2 0x1DA JUMP JUMPDEST POP SWAP1 JUMP JUMPDEST PUSH2 0x336 DUP1 PUSH2 0x201 PUSH0 CODECOPY PUSH0 RETURN INVALID PUSH1 0x80 PUSH1 0x40 MSTORE CALLVALUE DUP1 ISZERO PUSH2 0xF JUMPI PUSH0 PUSH0 REVERT JUMPDEST POP PUSH1 0x4 CALLDATASIZE LT PUSH2 0x34 JUMPI PUSH0 CALLDATALOAD PUSH1 0xE0 SHR DUP1 PUSH4 0x2ED22D7 EQ PUSH2 0x38 JUMPI DUP1 PUSH4 0xF3710A44 EQ PUSH2 0x68 JUMPI JUMPDEST PUSH0 PUSH0 REVERT JUMPDEST PUSH2 0x52 PUSH1 0x4 DUP1 CALLDATASIZE SUB DUP2 ADD SWAP1 PUSH2 0x4D SWAP2 SWAP1 PUSH2 0x17C JUMP JUMPDEST PUSH2 0x86 JUMP JUMPDEST PUSH1 0x40 MLOAD PUSH2 0x5F SWAP2 SWAP1 PUSH2 0x1C1 JUMP JUMPDEST PUSH1 0x40 MLOAD DUP1 SWAP2 SUB SWAP1 RETURN JUMPDEST PUSH2 0x70 PUSH2 0xDD JUMP JUMPDEST PUSH1 0x40 MLOAD PUSH2 0x7D SWAP2 SWAP1 PUSH2 0x1E9 JUMP JUMPDEST PUSH1 0x40 MLOAD DUP1 SWAP2 SUB SWAP1 RETURN JUMPDEST PUSH0 PUSH0 PUSH0 SWAP1 POP JUMPDEST PUSH1 0x1 DUP1 SLOAD SWAP1 POP DUP2 LT ISZERO PUSH2 0xD3 JUMPI DUP3 PUSH1 0x1 DUP3 DUP2 SLOAD DUP2 LT PUSH2 0xAE JUMPI PUSH2 0xAD PUSH2 0x202 JUMP JUMPDEST JUMPDEST SWAP1 PUSH0 MSTORE PUSH1 0x20 PUSH0 KECCAK256 ADD SLOAD SUB PUSH2 0xC6 JUMPI PUSH1 0x1 SWAP2 POP POP PUSH2 0xD8 JUMP JUMPDEST DUP1 DUP1 PUSH1 0x1 ADD SWAP2 POP POP PUSH2 0x8C JUMP JUMPDEST POP PUSH0 SWAP1 POP JUMPDEST SWAP2 SWAP1 POP JUMP JUMPDEST PUSH0 PUSH0 PUSH0 SWAP1 POP PUSH0 PUSH0 SWAP1 POP JUMPDEST PUSH0 DUP1 SLOAD SWAP1 POP DUP2 LT ISZERO PUSH2 0x13D JUMPI PUSH0 PUSH1 0x2 PUSH0 DUP4 DUP2 SLOAD DUP2 LT PUSH2 0x109 JUMPI PUSH2 0x108 PUSH2 0x202 JUMP JUMPDEST JUMPDEST SWAP1 PUSH0 MSTORE PUSH1 0x20 PUSH0 KECCAK256 ADD SLOAD PUSH2 0x11C SWAP2 SWAP1 PUSH2 0x25C JUMP JUMPDEST SUB PUSH2 0x130 JUMPI DUP2 DUP1 PUSH2 0x12C SWAP1 PUSH2 0x2B9 JUMP JUMPDEST SWAP3 POP POP JUMPDEST DUP1 DUP1 PUSH1 0x1 ADD SWAP2 POP POP PUSH2 0xE7 JUMP JUMPDEST POP DUP1 SWAP2 POP POP SWAP1 JUMP JUMPDEST PUSH0 PUSH0 REVERT JUMPDEST PUSH0 DUP2 SWAP1 POP SWAP2 SWAP1 POP JUMP JUMPDEST PUSH2 0x15B DUP2 PUSH2 0x149 JUMP JUMPDEST DUP2 EQ PUSH2 0x165 JUMPI PUSH0 PUSH0 REVERT JUMPDEST POP JUMP JUMPDEST PUSH0 DUP2 CALLDATALOAD SWAP1 POP PUSH2 0x176 DUP2 PUSH2 0x152 JUMP JUMPDEST SWAP3 SWAP2 POP POP JUMP JUMPDEST PUSH0 PUSH1 0x20 DUP3 DUP5 SUB SLT ISZERO PUSH2 0x191 JUMPI PUSH2 0x190 PUSH2 0x145 JUMP JUMPDEST JUMPDEST PUSH0 PUSH2 0x19E DUP5 DUP3 DUP6 ADD PUSH2 0x168 JUMP JUMPDEST SWAP2 POP POP SWAP3 SWAP2 POP POP JUMP JUMPDEST PUSH0 DUP2 ISZERO ISZERO SWAP1 POP SWAP2 SWAP1 POP JUMP JUMPDEST PUSH2 0x1BB DUP2 PUSH2 0x1A7 JUMP JUMPDEST DUP3 MSTORE POP POP JUMP JUMPDEST PUSH0 PUSH1 0x20 DUP3 ADD SWAP1 POP PUSH2 0x1D4 PUSH0 DUP4 ADD DUP5 PUSH2 0x1B2 JUMP JUMPDEST SWAP3 SWAP2 POP POP JUMP JUMPDEST PUSH2 0x1E3 DUP2 PUSH2 0x149 JUMP JUMPDEST DUP3 MSTORE POP POP JUMP JUMPDEST PUSH0 PUSH1 0x20 DUP3 ADD SWAP1 POP PUSH2 0x1FC PUSH0 DUP4 ADD DUP5 PUSH2 0x1DA JUMP JUMPDEST SWAP3 SWAP2 POP POP JUMP JUMPDEST PUSH32 0x4E487B7100000000000000000000000000000000000000000000000000000000 PUSH0 MSTORE PUSH1 0x32 PUSH1 0x4 MSTORE PUSH1 0x24 PUSH0 REVERT JUMPDEST PUSH32 0x4E487B7100000000000000000000000000000000000000000000000000000000 PUSH0 MSTORE PUSH1 0x12 PUSH1 0x4 MSTORE PUSH1 0x24 PUSH0 REVERT JUMPDEST PUSH0 PUSH2 0x266 DUP3 PUSH2 0x149 JUMP JUMPDEST SWAP2 POP PUSH2 0x271 DUP4 PUSH2 0x149 JUMP JUMPDEST SWAP3 POP DUP3 PUSH2 0x281 JUMPI PUSH2 0x280 PUSH2 0x22F JUMP JUMPDEST JUMPDEST DUP3 DUP3 MOD SWAP1 POP SWAP3 SWAP2 POP POP JUMP JUMPDEST PUSH32 0x4E487B7100000000000000000000000000000000000000000000000000000000 PUSH0 MSTORE PUSH1 0x11 PUSH1 0x4 MSTORE PUSH1 0x24 PUSH0 REVERT JUMPDEST PUSH0 PUSH2 0x2C3 DUP3 PUSH2 0x149 JUMP JUMPDEST SWAP2 POP PUSH32 0xFFFFFFFFFFFFFFFFFFFFFFFFFFFFFFFFFFFFFFFFFFFFFFFFFFFFFFFFFFFFFFFF DUP3 SUB PUSH2 0x2F5 JUMPI PUSH2 0x2F4 PUSH2 0x28C JUMP JUMPDEST JUMPDEST PUSH1 0x1 DUP3 ADD SWAP1 POP SWAP2 SWAP1 POP JUMP INVALID LOG2 PUSH5 0x6970667358 0x22 SLT KECCAK256 0x1F 0xBA PUSH5 0xC535FD5271 SWAP11 DUP7 SWAP3 0xE9 CODECOPY PREVRANDAO CALLCODE LOG4 DUP3 PUSH10 0x50C94BD12F9C2FF3D5E7 RJUMPI 0x4EA5 0xBF PUSH5 0x736F6C6343 STOP ADDMOD 0x1E STOP CALLER "
				},
				"gasEstimates": {
					"creation": {
						"codeDepositCost": "164400",
						"executionCost": "infinite",
						"totalCost": "infinite"
					},
					"external": {
						"countEventNumbers()": "infinite",
						"isInShortList(uint256)": "infinite"
					}
				},
				"methodIdentifiers": {
					"countEventNumbers()": "f3710a44",
					"isInShortList(uint256)": "02ed22d7"
				}
			},
			"storageLayout": {
				"storage": [
					{
						"astId": 25,
						"contract": "looping-practice.sol:LoopingPractice",
						"label": "longList",
						"offset": 0,
						"slot": "0",
						"type": "t_array(t_uint256)dyn_storage"
					},
					{
						"astId": 33,
						"contract": "looping-practice.sol:LoopingPractice",
						"label": "shortList",
						"offset": 0,
						"slot": "1",
						"type": "t_array(t_uint256)dyn_storage"
					}
				],
				"types": {
					"t_array(t_uint256)dyn_storage": {
						"base": "t_uint256",
						"encoding": "dynamic_array",
						"label": "uint256[]",
						"numberOfBytes": "32"
					},
					"t_uint256": {
						"encoding": "inplace",
						"label": "uint256",
						"numberOfBytes": "32"
					}
				}
			},
			"userdoc": {
				"kind": "user",
				"methods": {},
				"version": 1
			}
		}
	}
}