{
	"elections.sol": {
		"Elections": {
			"abi": [
				{
					"inputs": [],
					"name": "getResults",
					"outputs": [
						{
							"internalType": "enum Elections.Candidate",
							"name": "",
							"type": "uint8"
						},
						{
							"internalType": "uint256",
							"name": "",
							"type": "uint256"
						}
					],
					"stateMutability": "nonpayable",
					"type": "function"
				},
				{
					"inputs": [
						{
							"internalType": "enum Elections.Candidate",
							"name": "candidate",
							"type": "uint8"
						}
					],
					"name": "vote",
					"outputs": [],
					"stateMutability": "payable",
					"type": "function"
				}
			],
			"devdoc": {
				"kind": "dev",
				"methods": {},
				"version": 1
			},
			"evm": {
				"assembly": "    /* \"elections.sol\":75:1160  contract Elections {... */\n  mstore(0x40, 0x80)\n  callvalue\n  dup1\n  iszero\n  tag_1\n  jumpi\n  revert(0x00, 0x00)\ntag_1:\n  pop\n  dataSize(sub_0)\n  dup1\n  dataOffset(sub_0)\n  0x00\n  codecopy\n  0x00\n  return\nstop\n\nsub_0: assembly {\n        /* \"elections.sol\":75:1160  contract Elections {... */\n      mstore(0x40, 0x80)\n      jumpi(tag_1, lt(calldatasize, 0x04))\n      shr(0xe0, calldataload(0x00))\n      dup1\n      0x4717f97c\n      eq\n      tag_2\n      jumpi\n      dup1\n      0xb3f98adc\n      eq\n      tag_3\n      jumpi\n    tag_1:\n      revert(0x00, 0x00)\n        /* \"elections.sol\":496:1157  function getResults() public returns(Candidate, uint){... */\n    tag_2:\n      callvalue\n      dup1\n      iszero\n      tag_4\n      jumpi\n      revert(0x00, 0x00)\n    tag_4:\n      pop\n      tag_5\n      tag_6\n      jump\t// in\n    tag_5:\n      mload(0x40)\n      tag_7\n      swap3\n      swap2\n      swap1\n      tag_8\n      jump\t// in\n    tag_7:\n      mload(0x40)\n      dup1\n      swap2\n      sub\n      swap1\n      return\n        /* \"elections.sol\":373:488  function vote(Candidate candidate) public payable isApproved {... */\n    tag_3:\n      tag_9\n      0x04\n      dup1\n      calldatasize\n      sub\n      dup2\n      add\n      swap1\n      tag_10\n      swap2\n      swap1\n      tag_11\n      jump\t// in\n    tag_10:\n      tag_12\n      jump\t// in\n    tag_9:\n      stop\n        /* \"elections.sol\":496:1157  function getResults() public returns(Candidate, uint){... */\n    tag_6:\n        /* \"elections.sol\":533:542  Candidate */\n      0x00\n        /* \"elections.sol\":544:548  uint */\n      0x00\n        /* \"elections.sol\":560:575  uint votesForC1 */\n      0x00\n        /* \"elections.sol\":578:583  votes */\n      0x01\n        /* \"elections.sol\":578:597  votes[Candidate.C1] */\n      0x00\n        /* \"elections.sol\":584:596  Candidate.C1 */\n      0x00\n        /* \"elections.sol\":578:597  votes[Candidate.C1] */\n      0x02\n      dup2\n      gt\n      iszero\n      tag_14\n      jumpi\n      tag_15\n      tag_16\n      jump\t// in\n    tag_15:\n    tag_14:\n      0x02\n      dup2\n      gt\n      iszero\n      tag_17\n      jumpi\n      tag_18\n      tag_16\n      jump\t// in\n    tag_18:\n    tag_17:\n      dup2\n      mstore\n      0x20\n      add\n      swap1\n      dup2\n      mstore\n      0x20\n      add\n      0x00\n      keccak256\n      sload\n        /* \"elections.sol\":560:597  uint votesForC1 = votes[Candidate.C1] */\n      swap1\n      pop\n        /* \"elections.sol\":608:623  uint votesForC2 */\n      0x00\n        /* \"elections.sol\":626:631  votes */\n      0x01\n        /* \"elections.sol\":626:645  votes[Candidate.C2] */\n      0x00\n        /* \"elections.sol\":632:644  Candidate.C2 */\n      0x01\n        /* \"elections.sol\":626:645  votes[Candidate.C2] */\n      0x02\n      dup2\n      gt\n      iszero\n      tag_19\n      jumpi\n      tag_20\n      tag_16\n      jump\t// in\n    tag_20:\n    tag_19:\n      0x02\n      dup2\n      gt\n      iszero\n      tag_21\n      jumpi\n      tag_22\n      tag_16\n      jump\t// in\n    tag_22:\n    tag_21:\n      dup2\n      mstore\n      0x20\n      add\n      swap1\n      dup2\n      mstore\n      0x20\n      add\n      0x00\n      keccak256\n      sload\n        /* \"elections.sol\":608:645  uint votesForC2 = votes[Candidate.C2] */\n      swap1\n      pop\n        /* \"elections.sol\":656:671  uint votesForC3 */\n      0x00\n        /* \"elections.sol\":674:679  votes */\n      0x01\n        /* \"elections.sol\":674:693  votes[Candidate.C3] */\n      0x00\n        /* \"elections.sol\":680:692  Candidate.C3 */\n      0x02\n        /* \"elections.sol\":674:693  votes[Candidate.C3] */\n      dup1\n      dup2\n      gt\n      iszero\n      tag_23\n      jumpi\n      tag_24\n      tag_16\n      jump\t// in\n    tag_24:\n    tag_23:\n      0x02\n      dup2\n      gt\n      iszero\n      tag_25\n      jumpi\n      tag_26\n      tag_16\n      jump\t// in\n    tag_26:\n    tag_25:\n      dup2\n      mstore\n      0x20\n      add\n      swap1\n      dup2\n      mstore\n      0x20\n      add\n      0x00\n      keccak256\n      sload\n        /* \"elections.sol\":656:693  uint votesForC3 = votes[Candidate.C3] */\n      swap1\n      pop\n        /* \"elections.sol\":706:722  Candidate winner */\n      0x00\n        /* \"elections.sol\":725:737  Candidate.C1 */\n      0x00\n        /* \"elections.sol\":706:737  Candidate winner = Candidate.C1 */\n      swap1\n      pop\n        /* \"elections.sol\":748:765  uint winningVotes */\n      0x00\n        /* \"elections.sol\":768:778  votesForC1 */\n      dup5\n        /* \"elections.sol\":748:778  uint winningVotes = votesForC1 */\n      swap1\n      pop\n        /* \"elections.sol\":808:820  winningVotes */\n      dup1\n        /* \"elections.sol\":795:805  votesForC2 */\n      dup5\n        /* \"elections.sol\":795:820  votesForC2 > winningVotes */\n      gt\n        /* \"elections.sol\":791:910  if (votesForC2 > winningVotes) {... */\n      iszero\n      tag_27\n      jumpi\n        /* \"elections.sol\":846:858  Candidate.C2 */\n      0x01\n        /* \"elections.sol\":837:858  winner = Candidate.C2 */\n      swap2\n      pop\n        /* \"elections.sol\":888:898  votesForC2 */\n      dup4\n        /* \"elections.sol\":873:898  winningVotes = votesForC2 */\n      swap1\n      pop\n        /* \"elections.sol\":791:910  if (votesForC2 > winningVotes) {... */\n    tag_27:\n        /* \"elections.sol\":937:949  winningVotes */\n      dup1\n        /* \"elections.sol\":924:934  votesForC3 */\n      dup4\n        /* \"elections.sol\":924:949  votesForC3 > winningVotes */\n      gt\n        /* \"elections.sol\":920:1039  if (votesForC3 > winningVotes) {... */\n      iszero\n      tag_28\n      jumpi\n        /* \"elections.sol\":975:987  Candidate.C3 */\n      0x02\n        /* \"elections.sol\":966:987  winner = Candidate.C3 */\n      swap2\n      pop\n        /* \"elections.sol\":1017:1027  votesForC3 */\n      dup3\n        /* \"elections.sol\":1002:1027  winningVotes = votesForC3 */\n      swap1\n      pop\n        /* \"elections.sol\":920:1039  if (votesForC3 > winningVotes) {... */\n    tag_28:\n        /* \"elections.sol\":1087:1093  winner */\n      dup2\n        /* \"elections.sol\":1095:1107  winningVotes */\n      dup2\n        /* \"elections.sol\":1076:1108  abi.encode(winner, winningVotes) */\n      add(0x20, mload(0x40))\n      tag_29\n      swap3\n      swap2\n      swap1\n      tag_8\n      jump\t// in\n    tag_29:\n      mload(0x40)\n      0x20\n      dup2\n      dup4\n      sub\n      sub\n      dup2\n      mstore\n      swap1\n      0x40\n      mstore\n        /* \"elections.sol\":1066:1109  keccak256(abi.encode(winner, winningVotes)) */\n      dup1\n      mload\n      swap1\n      0x20\n      add\n      keccak256\n        /* \"elections.sol\":1051:1063  hashedResult */\n      0x02\n        /* \"elections.sol\":1051:1109  hashedResult = keccak256(abi.encode(winner, winningVotes)) */\n      dup2\n      swap1\n      sstore\n      pop\n        /* \"elections.sol\":1128:1134  winner */\n      dup2\n        /* \"elections.sol\":1136:1148  winningVotes */\n      dup2\n        /* \"elections.sol\":1120:1149  return (winner, winningVotes) */\n      swap7\n      pop\n      swap7\n      pop\n      pop\n      pop\n      pop\n      pop\n      pop\n        /* \"elections.sol\":496:1157  function getResults() public returns(Candidate, uint){... */\n      swap1\n      swap2\n      jump\t// out\n        /* \"elections.sol\":373:488  function vote(Candidate candidate) public payable isApproved {... */\n    tag_12:\n        /* \"elections.sol\":341:345  true */\n      0x01\n        /* \"elections.sol\":311:345  approvedVoters[msg.sender] == true */\n      iszero\n      iszero\n        /* \"elections.sol\":311:325  approvedVoters */\n      0x00\n        /* \"elections.sol\":311:337  approvedVoters[msg.sender] */\n      0x00\n        /* \"elections.sol\":326:336  msg.sender */\n      caller\n        /* \"elections.sol\":311:337  approvedVoters[msg.sender] */\n      0xffffffffffffffffffffffffffffffffffffffff\n      and\n      0xffffffffffffffffffffffffffffffffffffffff\n      and\n      dup2\n      mstore\n      0x20\n      add\n      swap1\n      dup2\n      mstore\n      0x20\n      add\n      0x00\n      keccak256\n      0x00\n      swap1\n      sload\n      swap1\n      0x0100\n      exp\n      swap1\n      div\n      0xff\n      and\n        /* \"elections.sol\":311:345  approvedVoters[msg.sender] == true */\n      iszero\n      iszero\n      eq\n        /* \"elections.sol\":303:346  require(approvedVoters[msg.sender] == true) */\n      tag_31\n      jumpi\n      revert(0x00, 0x00)\n    tag_31:\n        /* \"elections.sol\":479:480  1 */\n      0x01\n        /* \"elections.sol\":462:467  votes */\n      dup1\n        /* \"elections.sol\":462:478  votes[candidate] */\n      0x00\n        /* \"elections.sol\":468:477  candidate */\n      dup4\n        /* \"elections.sol\":462:478  votes[candidate] */\n      0x02\n      dup2\n      gt\n      iszero\n      tag_33\n      jumpi\n      tag_34\n      tag_16\n      jump\t// in\n    tag_34:\n    tag_33:\n      0x02\n      dup2\n      gt\n      iszero\n      tag_35\n      jumpi\n      tag_36\n      tag_16\n      jump\t// in\n    tag_36:\n    tag_35:\n      dup2\n      mstore\n      0x20\n      add\n      swap1\n      dup2\n      mstore\n      0x20\n      add\n      0x00\n      keccak256\n      sload\n        /* \"elections.sol\":462:480  votes[candidate]+1 */\n      tag_37\n      swap2\n      swap1\n      tag_38\n      jump\t// in\n    tag_37:\n        /* \"elections.sol\":445:450  votes */\n      0x01\n        /* \"elections.sol\":445:461  votes[candidate] */\n      0x00\n        /* \"elections.sol\":451:460  candidate */\n      dup4\n        /* \"elections.sol\":445:461  votes[candidate] */\n      0x02\n      dup2\n      gt\n      iszero\n      tag_39\n      jumpi\n      tag_40\n      tag_16\n      jump\t// in\n    tag_40:\n    tag_39:\n      0x02\n      dup2\n      gt\n      iszero\n      tag_41\n      jumpi\n      tag_42\n      tag_16\n      jump\t// in\n    tag_42:\n    tag_41:\n      dup2\n      mstore\n      0x20\n      add\n      swap1\n      dup2\n      mstore\n      0x20\n      add\n      0x00\n      keccak256\n        /* \"elections.sol\":445:480  votes[candidate]=votes[candidate]+1 */\n      dup2\n      swap1\n      sstore\n      pop\n        /* \"elections.sol\":373:488  function vote(Candidate candidate) public payable isApproved {... */\n      pop\n      jump\t// out\n        /* \"#utility.yul\":7:187   */\n    tag_16:\n        /* \"#utility.yul\":55:132   */\n      0x4e487b7100000000000000000000000000000000000000000000000000000000\n        /* \"#utility.yul\":52:53   */\n      0x00\n        /* \"#utility.yul\":45:133   */\n      mstore\n        /* \"#utility.yul\":152:156   */\n      0x21\n        /* \"#utility.yul\":149:150   */\n      0x04\n        /* \"#utility.yul\":142:157   */\n      mstore\n        /* \"#utility.yul\":176:180   */\n      0x24\n        /* \"#utility.yul\":173:174   */\n      0x00\n        /* \"#utility.yul\":166:181   */\n      revert\n        /* \"#utility.yul\":193:309   */\n    tag_43:\n        /* \"#utility.yul\":277:278   */\n      0x03\n        /* \"#utility.yul\":270:275   */\n      dup2\n        /* \"#utility.yul\":267:279   */\n      lt\n        /* \"#utility.yul\":257:303   */\n      tag_58\n      jumpi\n        /* \"#utility.yul\":283:301   */\n      tag_59\n      tag_16\n      jump\t// in\n    tag_59:\n        /* \"#utility.yul\":257:303   */\n    tag_58:\n        /* \"#utility.yul\":193:309   */\n      pop\n      jump\t// out\n        /* \"#utility.yul\":315:448   */\n    tag_44:\n        /* \"#utility.yul\":363:370   */\n      0x00\n        /* \"#utility.yul\":392:397   */\n      dup2\n        /* \"#utility.yul\":381:397   */\n      swap1\n      pop\n        /* \"#utility.yul\":398:442   */\n      tag_61\n        /* \"#utility.yul\":436:441   */\n      dup3\n        /* \"#utility.yul\":398:442   */\n      tag_43\n      jump\t// in\n    tag_61:\n        /* \"#utility.yul\":315:448   */\n      swap2\n      swap1\n      pop\n      jump\t// out\n        /* \"#utility.yul\":454:587   */\n    tag_45:\n        /* \"#utility.yul\":513:522   */\n      0x00\n        /* \"#utility.yul\":546:581   */\n      tag_63\n        /* \"#utility.yul\":575:580   */\n      dup3\n        /* \"#utility.yul\":546:581   */\n      tag_44\n      jump\t// in\n    tag_63:\n        /* \"#utility.yul\":533:581   */\n      swap1\n      pop\n        /* \"#utility.yul\":454:587   */\n      swap2\n      swap1\n      pop\n      jump\t// out\n        /* \"#utility.yul\":593:742   */\n    tag_46:\n        /* \"#utility.yul\":689:735   */\n      tag_65\n        /* \"#utility.yul\":729:734   */\n      dup2\n        /* \"#utility.yul\":689:735   */\n      tag_45\n      jump\t// in\n    tag_65:\n        /* \"#utility.yul\":684:687   */\n      dup3\n        /* \"#utility.yul\":677:736   */\n      mstore\n        /* \"#utility.yul\":593:742   */\n      pop\n      pop\n      jump\t// out\n        /* \"#utility.yul\":748:825   */\n    tag_47:\n        /* \"#utility.yul\":785:792   */\n      0x00\n        /* \"#utility.yul\":814:819   */\n      dup2\n        /* \"#utility.yul\":803:819   */\n      swap1\n      pop\n        /* \"#utility.yul\":748:825   */\n      swap2\n      swap1\n      pop\n      jump\t// out\n        /* \"#utility.yul\":831:949   */\n    tag_48:\n        /* \"#utility.yul\":918:942   */\n      tag_68\n        /* \"#utility.yul\":936:941   */\n      dup2\n        /* \"#utility.yul\":918:942   */\n      tag_47\n      jump\t// in\n    tag_68:\n        /* \"#utility.yul\":913:916   */\n      dup3\n        /* \"#utility.yul\":906:943   */\n      mstore\n        /* \"#utility.yul\":831:949   */\n      pop\n      pop\n      jump\t// out\n        /* \"#utility.yul\":955:1305   */\n    tag_8:\n        /* \"#utility.yul\":1085:1089   */\n      0x00\n        /* \"#utility.yul\":1123:1125   */\n      0x40\n        /* \"#utility.yul\":1112:1121   */\n      dup3\n        /* \"#utility.yul\":1108:1126   */\n      add\n        /* \"#utility.yul\":1100:1126   */\n      swap1\n      pop\n        /* \"#utility.yul\":1136:1216   */\n      tag_70\n        /* \"#utility.yul\":1213:1214   */\n      0x00\n        /* \"#utility.yul\":1202:1211   */\n      dup4\n        /* \"#utility.yul\":1198:1215   */\n      add\n        /* \"#utility.yul\":1189:1195   */\n      dup6\n        /* \"#utility.yul\":1136:1216   */\n      tag_46\n      jump\t// in\n    tag_70:\n        /* \"#utility.yul\":1226:1298   */\n      tag_71\n        /* \"#utility.yul\":1294:1296   */\n      0x20\n        /* \"#utility.yul\":1283:1292   */\n      dup4\n        /* \"#utility.yul\":1279:1297   */\n      add\n        /* \"#utility.yul\":1270:1276   */\n      dup5\n        /* \"#utility.yul\":1226:1298   */\n      tag_48\n      jump\t// in\n    tag_71:\n        /* \"#utility.yul\":955:1305   */\n      swap4\n      swap3\n      pop\n      pop\n      pop\n      jump\t// out\n        /* \"#utility.yul\":1392:1509   */\n    tag_50:\n        /* \"#utility.yul\":1501:1502   */\n      0x00\n        /* \"#utility.yul\":1498:1499   */\n      0x00\n        /* \"#utility.yul\":1491:1503   */\n      revert\n        /* \"#utility.yul\":1638:1748   */\n    tag_52:\n        /* \"#utility.yul\":1722:1723   */\n      0x03\n        /* \"#utility.yul\":1715:1720   */\n      dup2\n        /* \"#utility.yul\":1712:1724   */\n      lt\n        /* \"#utility.yul\":1702:1742   */\n      tag_76\n      jumpi\n        /* \"#utility.yul\":1738:1739   */\n      0x00\n        /* \"#utility.yul\":1735:1736   */\n      0x00\n        /* \"#utility.yul\":1728:1740   */\n      revert\n        /* \"#utility.yul\":1702:1742   */\n    tag_76:\n        /* \"#utility.yul\":1638:1748   */\n      pop\n      jump\t// out\n        /* \"#utility.yul\":1754:1915   */\n    tag_53:\n        /* \"#utility.yul\":1811:1816   */\n      0x00\n        /* \"#utility.yul\":1849:1855   */\n      dup2\n        /* \"#utility.yul\":1836:1856   */\n      calldataload\n        /* \"#utility.yul\":1827:1856   */\n      swap1\n      pop\n        /* \"#utility.yul\":1865:1909   */\n      tag_78\n        /* \"#utility.yul\":1903:1908   */\n      dup2\n        /* \"#utility.yul\":1865:1909   */\n      tag_52\n      jump\t// in\n    tag_78:\n        /* \"#utility.yul\":1754:1915   */\n      swap3\n      swap2\n      pop\n      pop\n      jump\t// out\n        /* \"#utility.yul\":1921:2272   */\n    tag_11:\n        /* \"#utility.yul\":1991:1997   */\n      0x00\n        /* \"#utility.yul\":2040:2042   */\n      0x20\n        /* \"#utility.yul\":2028:2037   */\n      dup3\n        /* \"#utility.yul\":2019:2026   */\n      dup5\n        /* \"#utility.yul\":2015:2038   */\n      sub\n        /* \"#utility.yul\":2011:2043   */\n      slt\n        /* \"#utility.yul\":2008:2127   */\n      iszero\n      tag_80\n      jumpi\n        /* \"#utility.yul\":2046:2125   */\n      tag_81\n      tag_50\n      jump\t// in\n    tag_81:\n        /* \"#utility.yul\":2008:2127   */\n    tag_80:\n        /* \"#utility.yul\":2166:2167   */\n      0x00\n        /* \"#utility.yul\":2191:2255   */\n      tag_82\n        /* \"#utility.yul\":2247:2254   */\n      dup5\n        /* \"#utility.yul\":2238:2244   */\n      dup3\n        /* \"#utility.yul\":2227:2236   */\n      dup6\n        /* \"#utility.yul\":2223:2245   */\n      add\n        /* \"#utility.yul\":2191:2255   */\n      tag_53\n      jump\t// in\n    tag_82:\n        /* \"#utility.yul\":2181:2255   */\n      swap2\n      pop\n        /* \"#utility.yul\":2137:2265   */\n      pop\n        /* \"#utility.yul\":1921:2272   */\n      swap3\n      swap2\n      pop\n      pop\n      jump\t// out\n        /* \"#utility.yul\":2278:2458   */\n    tag_54:\n        /* \"#utility.yul\":2326:2403   */\n      0x4e487b7100000000000000000000000000000000000000000000000000000000\n        /* \"#utility.yul\":2323:2324   */\n      0x00\n        /* \"#utility.yul\":2316:2404   */\n      mstore\n        /* \"#utility.yul\":2423:2427   */\n      0x11\n        /* \"#utility.yul\":2420:2421   */\n      0x04\n        /* \"#utility.yul\":2413:2428   */\n      mstore\n        /* \"#utility.yul\":2447:2451   */\n      0x24\n        /* \"#utility.yul\":2444:2445   */\n      0x00\n        /* \"#utility.yul\":2437:2452   */\n      revert\n        /* \"#utility.yul\":2464:2655   */\n    tag_38:\n        /* \"#utility.yul\":2504:2507   */\n      0x00\n        /* \"#utility.yul\":2523:2543   */\n      tag_85\n        /* \"#utility.yul\":2541:2542   */\n      dup3\n        /* \"#utility.yul\":2523:2543   */\n      tag_47\n      jump\t// in\n    tag_85:\n        /* \"#utility.yul\":2518:2543   */\n      swap2\n      pop\n        /* \"#utility.yul\":2557:2577   */\n      tag_86\n        /* \"#utility.yul\":2575:2576   */\n      dup4\n        /* \"#utility.yul\":2557:2577   */\n      tag_47\n      jump\t// in\n    tag_86:\n        /* \"#utility.yul\":2552:2577   */\n      swap3\n      pop\n        /* \"#utility.yul\":2600:2601   */\n      dup3\n        /* \"#utility.yul\":2597:2598   */\n      dup3\n        /* \"#utility.yul\":2593:2602   */\n      add\n        /* \"#utility.yul\":2586:2602   */\n      swap1\n      pop\n        /* \"#utility.yul\":2621:2624   */\n      dup1\n        /* \"#utility.yul\":2618:2619   */\n      dup3\n        /* \"#utility.yul\":2615:2625   */\n      gt\n        /* \"#utility.yul\":2612:2648   */\n      iszero\n      tag_87\n      jumpi\n        /* \"#utility.yul\":2628:2646   */\n      tag_88\n      tag_54\n      jump\t// in\n    tag_88:\n        /* \"#utility.yul\":2612:2648   */\n    tag_87:\n        /* \"#utility.yul\":2464:2655   */\n      swap3\n      swap2\n      pop\n      pop\n      jump\t// out\n\n    auxdata: 0xa26469706673582212205311b4054bbcc51d1afffb7f34090e8ead0889e192287c6439432c6a595c11b464736f6c634300081e0033\n}\n",
				"bytecode": {
					"linkReferences": {},
					"object": "6080604052348015600e575f5ffd5b506103f68061001c5f395ff3fe608060405260043610610028575f3560e01c80634717f97c1461002c578063b3f98adc14610057575b5f5ffd5b348015610037575f5ffd5b50610040610073565b60405161004e9291906102e7565b60405180910390f35b610071600480360381019061006c9190610335565b610187565b005b5f5f5f60015f5f600281111561008c5761008b61025c565b5b600281111561009e5761009d61025c565b5b81526020019081526020015f205490505f60015f600160028111156100c6576100c561025c565b5b60028111156100d8576100d761025c565b5b81526020019081526020015f205490505f60015f6002808111156100ff576100fe61025c565b5b60028111156101115761011061025c565b5b81526020019081526020015f205490505f5f90505f8490508084111561013957600191508390505b8083111561014957600291508290505b818160405160200161015c9291906102e7565b6040516020818303038152906040528051906020012060028190555081819650965050505050509091565b600115155f5f3373ffffffffffffffffffffffffffffffffffffffff1673ffffffffffffffffffffffffffffffffffffffff1681526020019081526020015f205f9054906101000a900460ff161515146101df575f5ffd5b6001805f8360028111156101f6576101f561025c565b5b60028111156102085761020761025c565b5b81526020019081526020015f2054610220919061038d565b60015f8360028111156102365761023561025c565b5b60028111156102485761024761025c565b5b81526020019081526020015f208190555050565b7f4e487b71000000000000000000000000000000000000000000000000000000005f52602160045260245ffd5b6003811061029a5761029961025c565b5b50565b5f8190506102aa82610289565b919050565b5f6102b98261029d565b9050919050565b6102c9816102af565b82525050565b5f819050919050565b6102e1816102cf565b82525050565b5f6040820190506102fa5f8301856102c0565b61030760208301846102d8565b9392505050565b5f5ffd5b6003811061031e575f5ffd5b50565b5f8135905061032f81610312565b92915050565b5f6020828403121561034a5761034961030e565b5b5f61035784828501610321565b91505092915050565b7f4e487b71000000000000000000000000000000000000000000000000000000005f52601160045260245ffd5b5f610397826102cf565b91506103a2836102cf565b92508282019050808211156103ba576103b9610360565b5b9291505056fea26469706673582212205311b4054bbcc51d1afffb7f34090e8ead0889e192287c6439432c6a595c11b464736f6c634300081e0033",
					"opcodes": "PUSH1 0x80 PUSH1 0x40 MSTORE CALLVALUE DUP1 ISZERO PUSH1 0xE JUMPI PUSH0 PUSH0 REVERT JUMPDEST POP PUSH2 0x3F6 DUP1 PUSH2 0x1C PUSH0 CODECOPY PUSH0 RETURN INVALID PUSH1 0x80 PUSH1 0x40 MSTORE PUSH1 0x4 CALLDATASIZE LT PUSH2 0x28 JUMPI PUSH0 CALLDATALOAD PUSH1 0xE0 SHR DUP1 PUSH4 0x4717F97C EQ PUSH2 0x2C JUMPI DUP1 PUSH4 0xB3F98ADC EQ PUSH2 0x57 JUMPI JUMPDEST PUSH0 PUSH0 REVERT JUMPDEST CALLVALUE DUP1 ISZERO PUSH2 0x37 JUMPI PUSH0 PUSH0 REVERT JUMPDEST POP PUSH2 0x40 PUSH2 0x73 JUMP JUMPDEST PUSH1 0x40 MLOAD PUSH2 0x4E SWAP3 SWAP2 SWAP1 PUSH2 0x2E7 JUMP JUMPDEST PUSH1 0x40 MLOAD DUP1 SWAP2 SUB SWAP1 RETURN JUMPDEST PUSH2 0x71 PUSH1 0x4 DUP1 CALLDATASIZE SUB DUP2 ADD SWAP1 PUSH2 0x6C SWAP2 SWAP1 PUSH2 0x335 JUMP JUMPDEST PUSH2 0x187 JUMP JUMPDEST STOP JUMPDEST PUSH0 PUSH0 PUSH0 PUSH1 0x1 PUSH0 PUSH0 PUSH1 0x2 DUP2 GT ISZERO PUSH2 0x8C JUMPI PUSH2 0x8B PUSH2 0x25C JUMP JUMPDEST JUMPDEST PUSH1 0x2 DUP2 GT ISZERO PUSH2 0x9E JUMPI PUSH2 0x9D PUSH2 0x25C JUMP JUMPDEST JUMPDEST DUP2 MSTORE PUSH1 0x20 ADD SWAP1 DUP2 MSTORE PUSH1 0x20 ADD PUSH0 KECCAK256 SLOAD SWAP1 POP PUSH0 PUSH1 0x1 PUSH0 PUSH1 0x1 PUSH1 0x2 DUP2 GT ISZERO PUSH2 0xC6 JUMPI PUSH2 0xC5 PUSH2 0x25C JUMP JUMPDEST JUMPDEST PUSH1 0x2 DUP2 GT ISZERO PUSH2 0xD8 JUMPI PUSH2 0xD7 PUSH2 0x25C JUMP JUMPDEST JUMPDEST DUP2 MSTORE PUSH1 0x20 ADD SWAP1 DUP2 MSTORE PUSH1 0x20 ADD PUSH0 KECCAK256 SLOAD SWAP1 POP PUSH0 PUSH1 0x1 PUSH0 PUSH1 0x2 DUP1 DUP2 GT ISZERO PUSH2 0xFF JUMPI PUSH2 0xFE PUSH2 0x25C JUMP JUMPDEST JUMPDEST PUSH1 0x2 DUP2 GT ISZERO PUSH2 0x111 JUMPI PUSH2 0x110 PUSH2 0x25C JUMP JUMPDEST JUMPDEST DUP2 MSTORE PUSH1 0x20 ADD SWAP1 DUP2 MSTORE PUSH1 0x20 ADD PUSH0 KECCAK256 SLOAD SWAP1 POP PUSH0 PUSH0 SWAP1 POP PUSH0 DUP5 SWAP1 POP DUP1 DUP5 GT ISZERO PUSH2 0x139 JUMPI PUSH1 0x1 SWAP2 POP DUP4 SWAP1 POP JUMPDEST DUP1 DUP4 GT ISZERO PUSH2 0x149 JUMPI PUSH1 0x2 SWAP2 POP DUP3 SWAP1 POP JUMPDEST DUP2 DUP2 PUSH1 0x40 MLOAD PUSH1 0x20 ADD PUSH2 0x15C SWAP3 SWAP2 SWAP1 PUSH2 0x2E7 JUMP JUMPDEST PUSH1 0x40 MLOAD PUSH1 0x20 DUP2 DUP4 SUB SUB DUP2 MSTORE SWAP1 PUSH1 0x40 MSTORE DUP1 MLOAD SWAP1 PUSH1 0x20 ADD KECCAK256 PUSH1 0x2 DUP2 SWAP1 SSTORE POP DUP2 DUP2 SWAP7 POP SWAP7 POP POP POP POP POP POP SWAP1 SWAP2 JUMP JUMPDEST PUSH1 0x1 ISZERO ISZERO PUSH0 PUSH0 CALLER PUSH20 0xFFFFFFFFFFFFFFFFFFFFFFFFFFFFFFFFFFFFFFFF AND PUSH20 0xFFFFFFFFFFFFFFFFFFFFFFFFFFFFFFFFFFFFFFFF AND DUP2 MSTORE PUSH1 0x20 ADD SWAP1 DUP2 MSTORE PUSH1 0x20 ADD PUSH0 KECCAK256 PUSH0 SWAP1 SLOAD SWAP1 PUSH2 0x100 EXP SWAP1 DIV PUSH1 0xFF AND ISZERO ISZERO EQ PUSH2 0x1DF JUMPI PUSH0 PUSH0 REVERT JUMPDEST PUSH1 0x1 DUP1 PUSH0 DUP4 PUSH1 0x2 DUP2 GT ISZERO PUSH2 0x1F6 JUMPI PUSH2 0x1F5 PUSH2 0x25C JUMP JUMPDEST JUMPDEST PUSH1 0x2 DUP2 GT ISZERO PUSH2 0x208 JUMPI PUSH2 0x207 PUSH2 0x25C JUMP JUMPDEST JUMPDEST DUP2 MSTORE PUSH1 0x20 ADD SWAP1 DUP2 MSTORE PUSH1 0x20 ADD PUSH0 KECCAK256 SLOAD PUSH2 0x220 SWAP2 SWAP1 PUSH2 0x38D JUMP JUMPDEST PUSH1 0x1 PUSH0 DUP4 PUSH1 0x2 DUP2 GT ISZERO PUSH2 0x236 JUMPI PUSH2 0x235 PUSH2 0x25C JUMP JUMPDEST JUMPDEST PUSH1 0x2 DUP2 GT ISZERO PUSH2 0x248 JUMPI PUSH2 0x247 PUSH2 0x25C JUMP JUMPDEST JUMPDEST DUP2 MSTORE PUSH1 0x20 ADD SWAP1 DUP2 MSTORE PUSH1 0x20 ADD PUSH0 KECCAK256 DUP2 SWAP1 SSTORE POP POP JUMP JUMPDEST PUSH32 0x4E487B7100000000000000000000000000000000000000000000000000000000 PUSH0 MSTORE PUSH1 0x21 PUSH1 0x4 MSTORE PUSH1 0x24 PUSH0 REVERT JUMPDEST PUSH1 0x3 DUP2 LT PUSH2 0x29A JUMPI PUSH2 0x299 PUSH2 0x25C JUMP JUMPDEST JUMPDEST POP JUMP JUMPDEST PUSH0 DUP2 SWAP1 POP PUSH2 0x2AA DUP3 PUSH2 0x289 JUMP JUMPDEST SWAP2 SWAP1 POP JUMP JUMPDEST PUSH0 PUSH2 0x2B9 DUP3 PUSH2 0x29D JUMP JUMPDEST SWAP1 POP SWAP2 SWAP1 POP JUMP JUMPDEST PUSH2 0x2C9 DUP2 PUSH2 0x2AF JUMP JUMPDEST DUP3 MSTORE POP POP JUMP JUMPDEST PUSH0 DUP2 SWAP1 POP SWAP2 SWAP1 POP JUMP JUMPDEST PUSH2 0x2E1 DUP2 PUSH2 0x2CF JUMP JUMPDEST DUP3 MSTORE POP POP JUMP JUMPDEST PUSH0 PUSH1 0x40 DUP3 ADD SWAP1 POP PUSH2 0x2FA PUSH0 DUP4 ADD DUP6 PUSH2 0x2C0 JUMP JUMPDEST PUSH2 0x307 PUSH1 0x20 DUP4 ADD DUP5 PUSH2 0x2D8 JUMP JUMPDEST SWAP4 SWAP3 POP POP POP JUMP JUMPDEST PUSH0 PUSH0 REVERT JUMPDEST PUSH1 0x3 DUP2 LT PUSH2 0x31E JUMPI PUSH0 PUSH0 REVERT JUMPDEST POP JUMP JUMPDEST PUSH0 DUP2 CALLDATALOAD SWAP1 POP PUSH2 0x32F DUP2 PUSH2 0x312 JUMP JUMPDEST SWAP3 SWAP2 POP POP JUMP JUMPDEST PUSH0 PUSH1 0x20 DUP3 DUP5 SUB SLT ISZERO PUSH2 0x34A JUMPI PUSH2 0x349 PUSH2 0x30E JUMP JUMPDEST JUMPDEST PUSH0 PUSH2 0x357 DUP5 DUP3 DUP6 ADD PUSH2 0x321 JUMP JUMPDEST SWAP2 POP POP SWAP3 SWAP2 POP POP JUMP JUMPDEST PUSH32 0x4E487B7100000000000000000000000000000000000000000000000000000000 PUSH0 MSTORE PUSH1 0x11 PUSH1 0x4 MSTORE PUSH1 0x24 PUSH0 REVERT JUMPDEST PUSH0 PUSH2 0x397 DUP3 PUSH2 0x2CF JUMP JUMPDEST SWAP2 POP PUSH2 0x3A2 DUP4 PUSH2 0x2CF JUMP JUMPDEST SWAP3 POP DUP3 DUP3 ADD SWAP1 POP DUP1 DUP3 GT ISZERO PUSH2 0x3BA JUMPI PUSH2 0x3B9 PUSH2 0x360 JUMP JUMPDEST JUMPDEST SWAP3 SWAP2 POP POP JUMP INVALID LOG2 PUSH5 0x6970667358 0x22 SLT KECCAK256 MSTORE8 GT 0xB4 SDIV 0x4B 0xBC 0xC5 SAR BYTE SELFDESTRUCT EXTSTATICCALL PUSH32 0x34090E8EAD0889E192287C6439432C6A595C11B464736F6C634300081E003300 "
				},
				"gasEstimates": {
					"creation": {
						"codeDepositCost": "202800",
						"executionCost": "243",
						"totalCost": "203043"
					},
					"external": {
						"getResults()": "infinite",
						"vote(uint8)": "infinite"
					}
				},
				"methodIdentifiers": {
					"getResults()": "4717f97c",
					"vote(uint8)": "b3f98adc"
				}
			},
			"storageLayout": {
				"storage": [
					{
						"astId": 9,
						"contract": "elections.sol:Elections",
						"label": "approvedVoters",
						"offset": 0,
						"slot": "0",
						"type": "t_mapping(t_address,t_bool)"
					},
					{
						"astId": 14,
						"contract": "elections.sol:Elections",
						"label": "votes",
						"offset": 0,
						"slot": "1",
						"type": "t_mapping(t_enum(Candidate)5,t_uint256)"
					},
					{
						"astId": 16,
						"contract": "elections.sol:Elections",
						"label": "hashedResult",
						"offset": 0,
						"slot": "2",
						"type": "t_bytes32"
					}
				],
				"types": {
					"t_address": {
						"encoding": "inplace",
						"label": "address",
						"numberOfBytes": "20"
					},
					"t_bool": {
						"encoding": "inplace",
						"label": "bool",
						"numberOfBytes": "1"
					},
					"t_bytes32": {
						"encoding": "inplace",
						"label": "bytes32",
						"numberOfBytes": "32"
					},
					"t_enum(Candidate)5": {
						"encoding": "inplace",
						"label": "enum Elections.Candidate",
						"numberOfBytes": "1"
					},
					"t_mapping(t_address,t_bool)": {
						"encoding": "mapping",
						"key": "t_address",
						"label": "mapping(address => bool)",
						"numberOfBytes": "32",
						"value": "t_bool"
					},
					"t_mapping(t_enum(Candidate)5,t_uint256)": {
						"encoding": "mapping",
						"key": "t_enum(Candidate)5",
						"label": "mapping(enum Elections.Candidate => uint256)",
						"numberOfBytes": "32",
						"value": "t_uint256"
					},
					"t_uint256": {
						"encoding": "inplace",
						"label": "uint256",
						"numberOfBytes": "32"
					}
				}
			},
			"userdoc": {
				"kind": "user",
				"methods": {},
				"version": 1
			}
		}
	}
}