{
	"data": {
		"bytecode": {
			"linkReferences": {},
			"object": "6080604052600a5f555f6001553480156016575f5ffd5b50610201806100245f395ff3fe608060405234801561000f575f5ffd5b5060043610610029575f3560e01c8063ca5d08801461002d575b5f5ffd5b61003561004b565b60405161004291906100da565b60405180910390f35b5f6001805411610090576040517f08c379a00000000000000000000000000000000000000000000000000000000081526004016100879061014d565b60405180910390fd5b600a5f54106100ae57600a5f546100a79190610198565b90506100bf565b60015f546100bc9190610198565b90505b90565b5f819050919050565b6100d4816100c2565b82525050565b5f6020820190506100ed5f8301846100cb565b92915050565b5f82825260208201905092915050565b7f4e6f7420656e6f756768207374616b65000000000000000000000000000000005f82015250565b5f6101376010836100f3565b915061014282610103565b602082019050919050565b5f6020820190508181035f8301526101648161012b565b9050919050565b7f4e487b71000000000000000000000000000000000000000000000000000000005f52601160045260245ffd5b5f6101a2826100c2565b91506101ad836100c2565b92508282019050808211156101c5576101c461016b565b5b9291505056fea26469706673582212202eed508b88710775ea8ffe14cb7bab29a667ce3880df44ee4d2c1998f8ba721a64736f6c634300081e0033",
			"opcodes": "PUSH1 0x80 PUSH1 0x40 MSTORE PUSH1 0xA PUSH0 SSTORE PUSH0 PUSH1 0x1 SSTORE CALLVALUE DUP1 ISZERO PUSH1 0x16 JUMPI PUSH0 PUSH0 REVERT JUMPDEST POP PUSH2 0x201 DUP1 PUSH2 0x24 PUSH0 CODECOPY PUSH0 RETURN INVALID PUSH1 0x80 PUSH1 0x40 MSTORE CALLVALUE DUP1 ISZERO PUSH2 0xF JUMPI PUSH0 PUSH0 REVERT JUMPDEST POP PUSH1 0x4 CALLDATASIZE LT PUSH2 0x29 JUMPI PUSH0 CALLDATALOAD PUSH1 0xE0 SHR DUP1 PUSH4 0xCA5D0880 EQ PUSH2 0x2D JUMPI JUMPDEST PUSH0 PUSH0 REVERT JUMPDEST PUSH2 0x35 PUSH2 0x4B JUMP JUMPDEST PUSH1 0x40 MLOAD PUSH2 0x42 SWAP2 SWAP1 PUSH2 0xDA JUMP JUMPDEST PUSH1 0x40 MLOAD DUP1 SWAP2 SUB SWAP1 RETURN JUMPDEST PUSH0 PUSH1 0x1 DUP1 SLOAD GT PUSH2 0x90 JUMPI PUSH1 0x40 MLOAD PUSH32 0x8C379A000000000000000000000000000000000000000000000000000000000 DUP2 MSTORE PUSH1 0x4 ADD PUSH2 0x87 SWAP1 PUSH2 0x14D JUMP JUMPDEST PUSH1 0x40 MLOAD DUP1 SWAP2 SUB SWAP1 REVERT JUMPDEST PUSH1 0xA PUSH0 SLOAD LT PUSH2 0xAE JUMPI PUSH1 0xA PUSH0 SLOAD PUSH2 0xA7 SWAP2 SWAP1 PUSH2 0x198 JUMP JUMPDEST SWAP1 POP PUSH2 0xBF JUMP JUMPDEST PUSH1 0x1 PUSH0 SLOAD PUSH2 0xBC SWAP2 SWAP1 PUSH2 0x198 JUMP JUMPDEST SWAP1 POP JUMPDEST SWAP1 JUMP JUMPDEST PUSH0 DUP2 SWAP1 POP SWAP2 SWAP1 POP JUMP JUMPDEST PUSH2 0xD4 DUP2 PUSH2 0xC2 JUMP JUMPDEST DUP3 MSTORE POP POP JUMP JUMPDEST PUSH0 PUSH1 0x20 DUP3 ADD SWAP1 POP PUSH2 0xED PUSH0 DUP4 ADD DUP5 PUSH2 0xCB JUMP JUMPDEST SWAP3 SWAP2 POP POP JUMP JUMPDEST PUSH0 DUP3 DUP3 MSTORE PUSH1 0x20 DUP3 ADD SWAP1 POP SWAP3 SWAP2 POP POP JUMP JUMPDEST PUSH32 0x4E6F7420656E6F756768207374616B6500000000000000000000000000000000 PUSH0 DUP3 ADD MSTORE POP JUMP JUMPDEST PUSH0 PUSH2 0x137 PUSH1 0x10 DUP4 PUSH2 0xF3 JUMP JUMPDEST SWAP2 POP PUSH2 0x142 DUP3 PUSH2 0x103 JUMP JUMPDEST PUSH1 0x20 DUP3 ADD SWAP1 POP SWAP2 SWAP1 POP JUMP JUMPDEST PUSH0 PUSH1 0x20 DUP3 ADD SWAP1 POP DUP2 DUP2 SUB PUSH0 DUP4 ADD MSTORE PUSH2 0x164 DUP2 PUSH2 0x12B JUMP JUMPDEST SWAP1 POP SWAP2 SWAP1 POP JUMP JUMPDEST PUSH32 0x4E487B7100000000000000000000000000000000000000000000000000000000 PUSH0 MSTORE PUSH1 0x11 PUSH1 0x4 MSTORE PUSH1 0x24 PUSH0 REVERT JUMPDEST PUSH0 PUSH2 0x1A2 DUP3 PUSH2 0xC2 JUMP JUMPDEST SWAP2 POP PUSH2 0x1AD DUP4 PUSH2 0xC2 JUMP JUMPDEST SWAP3 POP DUP3 DUP3 ADD SWAP1 POP DUP1 DUP3 GT ISZERO PUSH2 0x1C5 JUMPI PUSH2 0x1C4 PUSH2 0x16B JUMP JUMPDEST JUMPDEST SWAP3 SWAP2 POP POP JUMP INVALID LOG2 PUSH5 0x6970667358 0x22 SLT KECCAK256 0x2E 0xED POP DUP12 DUP9 PUSH18 0x775EA8FFE14CB7BAB29A667CE3880DF44EE 0x4D 0x2C NOT SWAP9 EXTCALL 0xBA PUSH19 0x1A64736F6C634300081E003300000000000000 "
		},
		"gasEstimates": {
			"creation": {
				"codeDepositCost": "102600",
				"executionCost": "27261",
				"totalCost": "129861"
			},
			"external": {
				"airDrop()": "infinite"
			}
		},
		"methodIdentifiers": {
			"airDrop()": "ca5d0880"
		}
	},
	"abi": [
		{
			"inputs": [],
			"name": "airDrop",
			"outputs": [
				{
					"internalType": "uint256",
					"name": "",
					"type": "uint256"
				}
			],
			"stateMutability": "view",
			"type": "function"
		}
	]
}